:1000000056C027C26FC06EC06DC06CC06BC06AC0E6
:1000100069C068C067C066C065C064C063C062C0B4
:1000200061C060C05FC00600FF0901A10115002684
:10003000FF00750895020900B20201C00902220002
:1000400001010080320904000001030000000921C1
:100050000101000122160007058103080064120156
:10006000100100000008C016DF05000101020001B8
:100070001203540065006D00700020006D006F00D9
:100080006E00280368006F006D006500200070009E
:1000900072006F00640075006300740069006F00F7
:1000A0006E00200069006E0063000403090411243F
:1000B0001FBECFE5D4E0DEBFCDBF10E0A0E6B0E0CC
:1000C000E8E5FAE002C005900D92A236B107D9F733
:1000D00020E0A2E6B0E001C01D92A03AB207E1F72D
:1000E00048D3B8C48DCF2BE021BB22B3206F22BBF5
:1000F0009098919A0000939A81E390E03DD130B3BB
:10010000000093980000939A81E390E035D140B3CA
:100110000000939887E090E02FD137FDE4CF2227AD
:1001200022BB2BEF21BBAF93A07F62BB0000939A51
:1001300062B36F706A2B62BB81E390E01DD193982C
:100140000000000022B32F70AF91A295A07F22BBC8
:100150000000939A22B32F702A2B22BB81E390E0F8
:100160000BD1939881E390E007D123E061FD22E079
:1001700022BB2BE021BB08952FB788E082BB282B40
:1001800022BB80E082BB81E390E0F6D02FBF0895D0
:10019000B89AC0988EE995E0EFD0B898C0988EE2F2
:1001A00090E0EAD0B099FECF8EE995E0E5D00895D1
:1001B00049E04A95403009F40895369548F000F436
:1001C00081EF90E0B89AC098D7D0C098B898F1CF96
:1001D0008EE290E0B89AC098CFD0B898C09884ECDE
:1001E00090E0CAD0E6CF4427B89AC09884E090E067
:1001F000C3D0B898C09885E290E0BED026B32695CB
:1002000037954F5F483019F0403121F006C03093E8
:10021000690003C030936700089588E890E0ACD08F
:10022000E3CF0895209167002295207F30916900E7
:1002300032953F70232B20936700309169003F7007
:100240003093690027FF13C030953F70209541E03F
:10025000340F432F3F7030936900429546954427F1
:10026000241F209367002DE22093680008952BE25D
:1002700020936800089500916700AA27B4E60B1741
:1002800018F00B1BAF5FFBCFA063AA2F61E02BDF41
:10029000AA27BAE088940B1718F00B1BAF5F59C060
:1002A000A063AA2F61E01FDFAA27A02FA063AA2FB7
:1002B00061E019DFAA2700270895B091690040E1A5
:1002C00057E260E077274B9F132D022D5B9F120DA5
:1002D000731D771F6B9F720D30E1DD245527661B60
:1002E00049E1001F111F771F4A9509F40FC0DD1C5B
:1002F000551F661FD31A5040604030F4D30EAA2712
:100300005A1F6A1F8894EDCF0894EBCFB8EEC3E074
:10031000AA2788940B171C072227720728F01C0BAA
:100320002227720BAF5FF5CFA063AA2F61E0DBDE5F
:10033000AA27B4E688940B172227120720F00B1B7C
:10034000120BAF5FF7CFA063AA2F61E0CCDEAA2724
:10035000BAE088940B1718F00B1BAF5FFACFA063BD
:10036000AA2F61E0C0DEAA27A02FA063AA2F61E018
:10037000BADEAA270027089581509040E8F7089533
:10038000715080409040E0F70895A0E360E0F4DE13
:1003900080EA9AE3F1DFA0E360E0EEDE89E592E037
:1003A000EBDFA0E360E0E8DE87E990E0E5DFA2E0D4
:1003B00060E099DEA8E260E096DEACE060E093DE0B
:1003C000A1E060E090DEA6E060E08DDEA4E761E001
:1003D0008ADEADE361E087DE0895DADE3CECE8DE3C
:1003E00034E4E6DEB09BFECFD3DE3CECE1DE3EEB58
:1003F000DFDEF9DECDDE3CECDBDE14DFA091680051
:1004000061E071DE38DFAEE261E06DDEAFED61E04C
:100410006ADEA3E461E067DEA2E860E064DE0895DE
:10042000A82FB92F80E090E041E050EA609530E0DD
:1004300009C02D9182279795879510F084279527DD
:10044000305EC8F36F5FA8F30895EADF8D939D9344
:100450000895CF93CFB7CF93C395989BE9F7989B17
:1004600009C0989B07C0989B05C0989B03C0989BA8
:1004700001C0A3C0DF93C0918300DD27C657DF4FC3
:10048000989B02C0DF91EBCF2F930F931F9303B381
:100490002FEF00FB20F94F933F9313B34FEF01274A
:1004A00000FB21F93BE031C04E7F012F13B32160E7
:1004B00028C0102F4D7F2260000003B329C04B7F5E
:1004C0002460012F000013B32BC013B3477F2860B3
:1004D0002AC04F7E03B320612CC04F7D13B320622E
:1004E0002FC04F7B03B3206432C0422703B349932C
:1004F0004FEF0000102710FB20F913B31570C9F15E
:10050000297F91F2012700FB21F903B3237F89F2B0
:10051000315058F1102710FB22F913B3277E79F2DE
:10052000012700FB23F92F7C81F203B3102710FB76
:1005300024F92F7971F200C013B3012700FB25F9CC
:100540002F7359F200C003B3102710FB26F9223095
:1005500040F200C013B3012700FB27F9243028F62E
:100560004F77206813B30000F9CF10E41ABF0027BB
:1005700019C03B503195C31BD04010E41ABF08810D
:10058000033CF9F00B34E9F0209181001981110F3F
:100590001213EDCF4A81441F093641F10D3211F09B
:1005A000013E29F7009388003F914F911F910F91D1
:1005B0002F91DF91CAB7C6FD4FCFCF91CFBFCF915B
:1005C000189520918800222379F310918600112339
:1005D00069F534306AF130938600209382001091DF
:1005E00083003BE0311B3093830022C000918600E2
:1005F0000130E4F40AE54F7049F43091610034FDB4
:1006000019C000936100CAE6D0E018C030917500AF
:1006100034FD10C000937500C6E7D0E00FC02795E9
:10062000A8F45150A9F4220F0000F9CF4AE503C005
:1006300042ED01C0432FC4E1D0E032E014B31560B5
:10064000A89A14BB05B320E415E05F93012756E098
:1006500005BB279520F4515021F4220FF9CF012733
:1006600056E000003B5A05BBD0F2279528F45150C4
:1006700029F4220F0000F9CF012756E0279505BB8A
:1006800020F4515021F4220FF9CF012756E029918F
:10069000332305BB21F60A7F10918700110FC65145
:1006A000D04005BB11F01093810010E41ABF016027
:1006B00014B31A7F402F4A7F5F9100C000C005BB72
:1006C00014BB45BB71CF1F93CF93DF93EC01109107
:1006D0006200161708F0162F80916300811109C07F
:1006E0007CDE80916700E4E6F0E080838091690021
:1006F000818320E00FC0822F90E0DE01A80FB91F98
:1007000030916300830F911DFC01EC59FF4F8081F4
:100710008C932F5F211778F380916300810F809372
:10072000630080916200811B80936200812FDF91C2
:10073000CF911F91089581E00895FC0190819076FA
:10074000903299F48181813039F482E080936200A3
:10075000109263008FEF0895893049F482E080930E
:100760006200109263008FEF089580E0089580E0AA
:1007700008958BEF81BB81E087BB5FD184B381603B
:1007800084BB80E006C0E7EBFBE03197F1F700C0E7
:1007900000008150C1F784B38E7F84BB7894FFEF53
:1007A00026E781E0F15020408040E1F700C00000E2
:1007B000ECDD9FEFE6E7F1E09150E040F040E1F73B
:1007C00000C0000027D0F5CFDC01862F662309F199
:1007D0009091660099231CF4CD0175DF0895E09196
:1007E0008400F091850096FF09C0962F24912C93E8
:1007F0003196915011969111F9CF07C0962F219102
:100800002C93915011969111FACFF0938500E093BB
:1008100084000895CF93DF936091860063500AF4BB
:10082000D0C0209183008CE090E0821B9109EC0104
:10083000C657DF4F809182008D3209F0B1C0683019
:1008400009F0BDC083EC80936A008AE58093610063
:10085000109266008881807619F0CE016EDF8CC020
:100860009A81109273008981811106C010927400E0
:1008700023E730E082E07CC0853031F4909387003C
:1008800023E730E080E074C0863009F051C08B81EE
:10089000813041F48EE590E0909385008093840050
:1008A00082E142C0823041F48CE390E09093850075
:1008B0008093840082E238C08330F9F48A81811108
:1008C00008C08AEA90E0909385008093840084E0D9
:1008D0002BC0813041F482E890E0909385008093B2
:1008E000840088E221C08230E1F480E790E09093B8
:1008F00085008093840082E117C0813241F48EE448
:1009000090E0909385008093840089E00DC082324E
:1009100051F486E290E0909385008093840086E114
:1009200003C080E001C080E090E49093660024C0A2
:10093000883099F0893031F49093890023E730E0D2
:1009400080E016C08A3069F08B3079F48BE48093B4
:10095000760023E730E080E00BC029E830E081E05A
:1009600007C023E730E081E003C023E730E080E008
:1009700030938500209384008F3F41F49881992320
:100980000CF48E8190E89093660007C09F819111CE
:1009900004C09E81981708F4892F809360000FC0CF
:1009A0008091660088235CF4CE01C5DE8F3F21F480
:1009B0008EE18093610003C081111092600010925B
:1009C00086008091610084FF29C0809160008F3F84
:1009D00029F1893010F4682F01C068E0861B8093EC
:1009E0006000EAE6F0E0908188E8892780838BE662
:1009F00090E0EADEC82F893058F4682F8BE690E04B
:100A000024DDCC5FCC3040F48FEF8093600004C0D5
:100A10008FEF80936000CEE1C093610094E104C049
:100A200083B3857039F491509111FACF10928700F9
:100A300010928100DF91CF91089585B7826085BFC4
:100A40008BB780648BBFE5E7F0E08BE481838AE5B8
:080A500080830895F894FFCFA4
:020A5800FF5A43
:00000001FF
