:1000000056C0A0C16FC06EC06DC06CC0EFC36AC0E7
:1000100069C068C067C066C065C064C063C062C0B4
:1000200061C060C05FC00600FF0901A10115002684
:10003000FF00750895020900B20201C00902220002
:1000400001010080320904000001030000000921C1
:100050000101000122160007058103080064120156
:10006000100100000008C016DF05000101020001B8
:100070001203540065006D00700020006D006F00D9
:100080006E00280368006F006D006500200070009E
:1000900072006F00640075006300740069006F00F7
:1000A0006E00200069006E0063000403090411243F
:1000B0001FBECFE5D4E0DEBFCDBF10E0A0E6B0E0CC
:1000C000E6E4FBE002C005900D92A436B107D9F733
:1000D00020E0A4E6B0E001C01D92AD3AB207E1F71E
:1000E000A8D32FC58DCF60917100709160002BE077
:1000F00021BB22B3206F22BB9098919A0000939A63
:1001000081E390E0BFD030B3000093980000939A51
:1001100081E390E0B7D040B30000939887E090E08F
:10012000B1D037FDE4CF222722BB2BEF21BB7F9339
:10013000707F62BB0000939A62B36F70672B62BBE3
:1001400081E390E09FD093980000000022B32F70CD
:100150007F917295707F22BB0000939A22B32F701B
:10016000272B22BB81E390E08DD0939881E390E030
:1001700089D023E061FD22E022BB2BE021BB20E3FC
:100180002093600008952FB788E082BB282B22BB04
:1001900080E082BB81E390E075D02FBF0895B89ACC
:1001A000C0988EE995E06ED0B898C0988EE290E045
:1001B00069D0B099FECF8EE995E064D0089549E00A
:1001C0004A95403009F40895369548F000F481EFDF
:1001D00090E0B89AC09856D0C098B898F1CF8EE207
:1001E00090E0B89AC0984ED0B898C09884EC90E04F
:1001F00049D0E6CF4427B89AC09884E090E042D036
:10020000B898C09885E290E03DD026B32695379502
:100210004F5F483019F0403121F006C03093700034
:1002200003C030937400089588E890E02BD0E3CFAA
:100230000895209174002295207F309170003295AE
:100240003F70232B20937300309170003F703093E8
:10025000760027FF13C030953F70209541E0340FA2
:10026000432F3F7030937600429546954427241FD4
:10027000209373002DE22093750008952BE22093C4
:100280007500089581509040E8F7089571508040BE
:100290009040E0F7089570E360E075DF80EA9AE34C
:1002A000F1DF70E360E06FDF89E592E0EBDF70E3A0
:1002B00060E069DF87E990E0E5DF72E060E017DF8A
:1002C00078E260E014DF7CE060E011DF71E060E084
:1002D0000EDF76E060E00BDF74E761E008DF7DE3CE
:1002E00061E005DF08955BDF3CEC69DF34E467DF44
:1002F000B09BFECF54DF3CEC62DF3EEB60DF7ADF89
:100300004EDF3CEC5CDF95DF7091750061E0EFDE65
:100310000895A82FB92F80E090E041E050EA609561
:1003200030E009C02D9182279795879510F084279A
:100330009527305EC8F36F5FA8F30895EADF8D93C9
:100340009D930895CF93CFB7CF93C395989BE9F72B
:10035000989B09C0989B07C0989B05C0989B03C0B9
:10036000989B01C0A3C0DF93C0919000DD27C956C0
:10037000DF4F989B02C0DF91EBCF2F930F931F931A
:1003800003B32FEF00FB20F94F933F9313B34FEFCD
:10039000012700FB21F93BE031C04E7F012F13B351
:1003A000216028C0102F4D7F2260000003B329C0B8
:1003B0004B7F2460012F000013B32BC013B3477F82
:1003C00028602AC04F7E03B320612CC04F7D13B339
:1003D00020622FC04F7B03B3206432C0422703B397
:1003E00049934FEF0000102710FB20F913B315704D
:1003F000C9F1297F91F2012700FB21F903B3237F83
:1004000089F2315058F1102710FB22F913B3277EDF
:1004100079F2012700FB23F92F7C81F203B3102727
:1004200010FB24F92F7971F200C013B3012700FBF0
:1004300025F92F7359F200C003B3102710FB26F9DA
:10044000223040F200C013B3012700FB27F924300B
:1004500028F64F77206813B30000F9CF10E41ABFD5
:10046000002719C03B503195C31BD04010E41ABF80
:100470000881033CF9F00B34E9F020918E001981DA
:10048000110F1213EDCF4A81441F093641F10D328D
:1004900011F0013E29F7009395003F914F911F9174
:1004A0000F912F91DF91CAB7C6FD4FCFCF91CFBF2C
:1004B000CF91189520919500222379F31091930004
:1004C000112369F534306AF13093930020938F0043
:1004D000109190003BE0311B3093900022C00091BE
:1004E00093000130E4F40AE54F7049F43091620062
:1004F00034FD19C000936200C7E7D0E018C0309106
:10050000820034FD10C000938200C3E8D0E00FC029
:100510002795A8F45150A9F4220F0000F9CF4AE51D
:1005200003C042ED01C0432FC4E1D0E032E014B378
:100530001560A89A14BB05B320E415E05F9301276A
:1005400056E005BB279520F4515021F4220FF9CF36
:10055000012756E000003B5A05BBD0F2279528F44E
:10056000515029F4220F0000F9CF012756E02795BA
:1005700005BB20F4515021F4220FF9CF012756E09A
:100580002991332305BB21F60A7F10919400110FA6
:10059000C651D04005BB11F010938E0010E41ABF75
:1005A000016014B31A7F402F4A7F5F9100C000C0E2
:1005B00005BB14BB45BB71CFCF93DF93EC0180919A
:1005C0006400861708F4682F40916500411108C047
:1005D00090917400E6E6F0E0908390917000918332
:1005E00090E00DC0292F30E0DE01A20FB31F240FD1
:1005F000311DF901EA59FF4F20812C939F5F961717
:1006000088F3460F40936500861B80936400862F15
:10061000DF91CF91089581E00895FC01908190765B
:10062000903299F48181813039F482E080936400C2
:10063000109265008FEF0895893049F482E080932D
:100640006400109265008FEF089580E0089580E0C7
:100650000895CF9348DE8091730080936900809164
:10066000760090E0A0E0B0E080936A0090936B0089
:10067000A0936C00B0936D000AC08091690084560D
:1006800080936900809160008F5F8093600080910B
:100690006900843690F781E08093710024DD0AC000
:1006A000809169008A5080936900809160008F5F1B
:1006B00080936000809169008A3090F7C1E0C09318
:1006C000710011DD80916900805D80936000C093AE
:1006D000710009DD8EE280936000C093710003DD3C
:1006E00020916A0030916B0040916C0050916D0038
:1006F000A0E1B7E210D2DC01CB01689413F8B69503
:10070000A795979587951694D1F790936F0080934E
:100710006E000FC080916E0090916F00885E9340D4
:1007200090936F0080936E00809160008F5F809344
:10073000600080916E0090916F00883E934050F76A
:1007400081E080937100CFDC0FC080916E009091AA
:100750006F008456910990936F0080936E00809192
:1007600060008F5F8093600080916E0090916F00B9
:100770008436910550F781E080937100B4DC0EC09F
:1007800080916E0090916F000A9790936F00809314
:100790006E00809160008F5F8093600080916E009A
:1007A00090916F000A9760F7C1E0C09371009BDCE5
:1007B00080916E0090916F00805D80936000C09387
:1007C000710091DC83E480936000C09371008BDC46
:1007D0008FED80936000C093710085DC82E8809388
:1007E0006000109271007FDCCF9108951F920F92EC
:1007F0000FB60F9211242F933F934F935F936F93F4
:100800007F938F939F93AF93BF93EF93FF9321DFDA
:10081000FF91EF91BF91AF919F918F917F916F91D8
:100820005F914F913F912F910F900FBE0F901F90AE
:1008300018958BEF81BB81E087BB60D184B3816069
:1008400084BB80E006C0E7EBFBE03197F1F700C026
:1008500000008150C1F784B38E7F84BB8DE08EBDD4
:100860001DBC1CBC83E18BBD88E88ABD80E189BFCB
:100870007894FFEF26E781E0F15020408040E1F7D7
:1008800000C0000008DD27D0FECFDC01862F6623E4
:1008900009F19091680099231CF4CD018DDE089533
:1008A000E0919100F091920096FF09C0962F24915B
:1008B0002C933196915011969111F9CF07C0962F34
:1008C00021912C93915011969111FACFF0939200AF
:1008D000E09391000895CF93DF936091930063506C
:1008E0000AF4D0C0209190008CE090E0821B910926
:1008F000EC01C956DF4F80918F008D3209F0B1C0F5
:10090000683009F0BDC083EC809377008AE580935E
:100910006200109268008881807619F0CE017DDE39
:100920008CC09A81109280008981811106C010923A
:10093000810020E830E082E07CC0853031F4909383
:10094000940020E830E080E074C0863009F051C0A7
:100950008B81813041F48EE590E0909392008093FA
:10096000910082E142C0823041F48CE390E09093A8
:1009700092008093910082E238C08330F9F48A813A
:10098000811108C08AEA90E09093920080939100D0
:1009900084E02BC0813041F482E890E09093920093
:1009A0008093910088E221C08230E1F480E790E0FA
:1009B000909392008093910082E117C0813241F4BC
:1009C0008EE490E0909392008093910089E00DC0B6
:1009D000823251F486E290E09093920080939100ED
:1009E00086E103C080E001C080E090E4909368005D
:1009F00024C0883099F0893031F49093960020E833
:100A000030E080E016C08A3069F08B3079F48BE4F6
:100A10008093830020E830E080E00BC026E930E0DE
:100A200081E007C020E830E081E003C020E830E04A
:100A300080E030939200209391008F3F41F49881A1
:100A400099230CF48E8190E89093680007C09F81F1
:100A5000911104C09E81981708F4892F809361003A
:100A60000FC08091680088235CF4CE01D4DD8F3FF5
:100A700021F48EE18093620003C081111092610025
:100A8000109293008091620084FF29C080916100E0
:100A90008F3F29F1893010F4682F01C068E0861B70
:100AA00080936100E7E7F0E0908188E88927808300
:100AB00088E790E0EADEC82F893058F4682F88E78D
:100AC00090E03CDCCC5FCC3040F48FEF8093610051
:100AD00004C08FEF80936100CEE1C093620094E187
:100AE00004C083B3857039F491509111FACF1092FC
:100AF000940010928E00DF91CF91089585B78260A7
:100B000085BF8BB780648BBFE2E8F0E08BE4818324
:100B10008AE58083089509D0A59F900DB49F900D1C
:100B2000A49F800D911D11240895A29FB001B39F31
:100B3000C001A39F01D0B29F700D811D1124911D92
:060B40000895F894FFCFB8
:040B460030FF5A0022
:00000001FF
